:1000000010C017C016C015C014C013C012C011C054
:1000100010C00FC00EC00DC00CC00BC00AC009C07C
:1000200008C011241FBECFE5D2E0DEBFCDBF02D095
:1000300039C0E6CFBA9AD79A81EA80BF83E083BFFE
:1000400090E02FEF892F86BF3FEF40E752E031501D
:1000500040405040E1F700C00000865F843099F7CF
:10006000892F8CBF3FEF40E752E031504040504075
:10007000E1F700C000008C5E843099F7822F86BFC4
:100080008A508B3FE1F7822F8CBF3FEF40E752E071
:10009000315040405040E1F700C0000084518B3F98
:0800A00099F7D0CFF894FFCFCF
:00000001FF
