:1000000010C01FC069C01DC01CC01BC01AC019C0D1
:1000100018C017C016C03AC014C013C012C011C017
:1000200010C011241FBECFE5D2E0DEBFCDBF20E05F
:10003000A0E6B0E001C01D92A736B207E1F7CFD02D
:10004000A8C2DECF9C019FB5906A9FBDDF9AC29A7D
:1000500039BD28BD3BBD2ABD08959C019FB5906A5E
:100060009FBDDF98C29839BD28BD3BBD2ABD08950C
:100070009C019FB59F779FBD9EB590629EBD39BD87
:1000800028BD08958FB58F758FBD08951F920F926B
:100090000FB60F9211248F939F93AF93BF938091CC
:1000A000600090916100A0916200B0916300815066
:1000B0009F4FAF4FBF4F8093600090936100A0931C
:1000C0006200B0936300BF91AF919F918F910F90A9
:1000D0000FBE0F901F9018951F920F920FB60F92A0
:1000E00011242F938F939F93AF93BF9389B390E085
:1000F0000090650002C0959587950A94E2F780FF0D
:1001000007C083B7816083BF89B7816089BF1CC086
:1001100083B78E7F83BF22B780916000909161008A
:10012000A0916200B0916300820F911DA11DB11DCD
:100130008093600090936100A0936200B09363008D
:1001400012BE81E080936400BF91AF919F918F9127
:100150002F910F900FBE0F901F901895F8948BB7AA
:1001600080618BBF909A7894109264001092600026
:10017000109261001092620010926300C0988FE3A9
:100180009CE90197F1F700C00000C09A8FEB9DE554
:100190000197F1F700C00000C0988FE39CE9019738
:1001A000F1F700C00000809164008823E1F38BB771
:1001B0008F7E8BBF909860916000709161008091FC
:1001C000620090916300C4D020E034E244EF5AE42E
:1001D00057D020E03AEE44E856E44CD1089587B376
:1001E000876087BB8AB3806E8ABBC19A8FB58160F6
:1001F0008FBD8EB582608EBD12BCB0DF6B017C01FD
:1002000020E030E048EC53E431D118166CF020E0E7
:1002100030E040E251E4C701B60128D1882324F040
:1002200086E990E00FDF22C02DDF2FEF89E698E10D
:10023000215080409040E1F700C0000086E990E046
:100240000CDF2FEF83ED90E3215080409040E1F7E9
:1002500000C0000086E990E00BDF2FEF89E698E10F
:10026000215080409040E1F700C000002FE788E374
:1002700091E0215080409040E1F700C00000BDCFE8
:100280000CD0BAC0B2D040F0A9D030F021F45F3F1A
:1002900019F09BC05111E4C09EC0BFD098F39923C0
:1002A000C9F35523B1F3951B550BBB27AA2762173A
:1002B0007307840738F09F5F5F4F220F331F441F7F
:1002C000AA1FA9F333D00E2E3AF0E0E830D09150B7
:1002D0005040E695001CCAF729D0FE2F27D0660FA4
:1002E000771F881FBB1F261737074807AB07B0E8E3
:1002F00009F0BB0B802DBF01FF2793585F4F2AF0F9
:100300009E3F510568F061C0ABC05F3FECF3983E83
:10031000DCF3869577956795B795F7959F5FC9F755
:10032000880F911D9695879597F90895E1E0660FDE
:10033000771F881FBB1F621773078407BA0720F057
:10034000621B730B840BBA0BEE1F88F7E0950895C0
:10035000E89409C097FB3EF490958095709561955F
:100360007F4F8F4F9F4F9923A9F0F92F96E9BB2715
:100370009395F695879577956795B795F111F8CF91
:10038000FAF4BB0F11F460FF1BC06F5F7F4F8F4FFC
:100390009F4F16C0882311F096E911C0772321F0F2
:1003A0009EE8872F762F05C0662371F096E8862F8A
:1003B00070E060E02AF09A95660F771F881FDAF7E1
:1003C000880F9695879597F9089597F99F6780E824
:1003D00070E060E008959FEF80EC089500240A9497
:1003E0001616170618060906089500240A94121610
:1003F0001306140605060895092E0394000C11F443
:10040000882352F0BB0F40F4BF2B11F460FF04C0EF
:100410006F5F7F4F8F4F9F4F089557FD9058440F48
:10042000551F59F05F3F71F04795880F97FB991F53
:1004300061F09F3F79F08795089512161306140610
:10044000551FF2CF4695F1DF08C01616170618069D
:10045000991FF1CF86957105610508940895E89478
:10046000BB2766277727CB0197F908956ED008F44C
:100470008FEF08950AD0C0CFB1DF28F0B6DF18F0B3
:10048000952309F0A2CFA7CFEBCFC7DFA8F399231D
:10049000D9F35523C9F3950F50E0551FAA27EE272E
:1004A000FF27BB2700240894679520F4E20FF31F71
:1004B000B41F0A1E220F331F441FAA1F6695A9F7F7
:1004C000779530F4F30FB41F0A1E121E08F46395DB
:1004D000330F441FAA1F221F769599F7879520F4A2
:1004E000B40F0A1E121E631F440FAA1F221F331FC0
:1004F0008695A9F7862F712D602D11249F575040A6
:100500008AF0E1F088234AF0EE0FFF1FBB1F661F41
:10051000771F881F91505040A9F79E3F510570F0FA
:1005200054CF9ECF5F3FECF3983EDCF386957795F2
:100530006795B795F795E7959F5FC1F7FE2B880FF5
:10054000911D9695879597F90895990F0008550F75
:10055000AA0BE0E8FEEF16161706E807F907C0F049
:1005600012161306E407F50798F0621B730B840B51
:10057000950B39F40A2661F0232B242B252B21F42B
:1005800008950A2609F4A140A6958FEF811D811DCB
:060590000895F894FFCF6E
:00000001FF
